:020000040800F2
:10000000D807002061020008554900083D3A000861
:10001000F1480008891500082D5300080000000071
:10002000000000000000000000000000ED4B000890
:100030000D16000800000000C5490008254D000805
:100040007B0200087B0200087B0200087B0200089C
:100050007B0200087B0200087B0200087B0200088C
:100060007B0200087B0200087B0200087B0200087C
:100070007B0200087B0200087B0200087B0200086C
:100080007B0200087B0200087B0200087B0200085C
:100090007B0200087B0200087B0200087B0200084C
:1000A0007B0200087B0200087B0200087B0200083C
:1000B0007B0200087B0200087B0200087B0200082C
:1000C0007B0200087B0200087B0200087B0200081C
:1000D0007B0200087B0200087B0200087B0200080C
:1000E0007B0200087B0200087B02000800F002F897
:1000F00000F0A6F814A696E8000CB244B344DA4522
:1001000001D100F09DF8BAE80F000FA696E8300084
:10011000A5EB040504EB0607AAEB0704A7F101070A
:100120004FEA15154FEA3414A4F10104AC4201D38F
:1001300000F086F813F0010F18BFFB1A43F001031B
:1001400000F001F8DBE718470072000020720000A1
:10015000103A24BF78C878C1FAD8520724BF30C8F3
:1001600030C144BF04680C60704700007047000055
:100170000023002400250026103A28BF78C1FBD8B0
:10018000520728BF30C148BF0B6070476E2900F08E
:10019000A781702900F0E982662906F0DE866529CC
:1001A00006F0DB86672906F0D886612906F0D78637
:1001B00003681B0A28BF41F08001692900F05481BF
:1001C000642900F05181752900F04E816F2900F0FB
:1001D0007782782900F0B582E92900F01182E429BC
:1001E00000F00E82F52900F00B82EF2900F07482F6
:1001F000F82900F0B4820368DB0928BF41F08001D0
:10020000632900F0B587732900F0BA87E32900F06D
:10021000C587F32900F0CA87002070471FB501F099
:100220001BF804000020002106F0E8FB401C606081
:100230000020002106F0CCFBE0601FBD10B510BD12
:1002400000F0DCFF1146FFF7E9FF05F0FFF801F0D1
:10025000B9F803B4FFF7F2FF03BC01F0C1F80000E6
:100260000948804709480047FEE7FEE7FEE7FEE74A
:10027000FEE7FEE7FEE7FEE7FEE7FEE70448054986
:10028000054A064B70470000894D0008ED00000844
:10029000D8010020D8070020D8030020D803002070
:1002A0000FB41CB5084B06AA7B446946009005981C
:1002B00000F02FF904460020694600F03DF9204681
:1002C0001CBC5DF814FB00008D0200004FF0000222
:1002D00000B5134694469646203922BFA0E80C503C
:1002E000A0E80C50B1F12001BFF4F7AF090728BF17
:1002F000A0E80C5048BF0CC05DF804EB890028BF93
:1003000040F8042B08BF704748BF20F8022B11F0BB
:10031000804F18BF00F8012B704700004FF0013CE0
:1003200050F8042B51F8043B9A4221D1A2EB0C0364
:10033000934313EACC1317D150F8042B51F8043B24
:100340009A4215D1A2EB0C03934313EACC130BD1C1
:1003500050F8042B51F8043B9A4209D1A2EB0C034C
:10036000934313EACC13DBD04FF00000704700BF7B
:10037000D01A01BAB1FA81F101F0180122FA01F0A4
:10038000CB40DBB2C0B2C01AC1F120012CFA01F39C
:10039000D11A914311EAC311E6D1704770477047F3
:1003A000704770B5044685690068C10601D53026DE
:1003B00000E02026C00707D070BDD4E901213046F7
:1003C0009047206A401C20626D1EF6D570BD70B546
:1003D000044685690078C00707D170BDD4E90121C2
:1003E00020209047206A401C20626D1EF6D570BD0B
:1003F00009684A0501D540B27047C905FCD500B26D
:10040000704709684A0501D5C0B27047C905FCD5D7
:1004100080B2704770B50C460546012A05D0287891
:10042000800600D5EA69002302E0012305E05B1C99
:10043000934202D2E05C0028F9D1A869E618C01AFC
:10044000A861286A184428622846FFF7AAFF04E03A
:10045000D5E9012114F8010B9047B442F8D328469E
:10046000FFF7B5FF70BD00002DE9F04106460024FE
:1004700010687529314616A510D0FFF7B9FF00287E
:1004800002DA404213A507E031688A0701D512A5B8
:1004900002E0490704D511A5012401E0FFF7B1FFEF
:1004A00000210A2206F1240709E0B0FBF2FCB0FBB0
:1004B000F2F302FB1C00303078541846491C002827
:1004C000F3D123462A463046BDE8F04100F061BA38
:1004D000000000002D0000002B00000020000000A4
:1004E00011680268006A530501D508700AE0D30557
:1004F00001D5088006E0130603D5C217C1E9000242
:1005000000E008600120704701694A1C0261087818
:10051000704700B58FB0CDE9013100210591054943
:100520007944CDE903101146684600F029F90FB06F
:1005300000BD0000E5FFFFFF0A6802F8010B0A603A
:10054000704700002DE9FF5F15468A460446DFF834
:10055000AC80F8440027D8E900103E46CDE90010F1
:1005600010E03AF816106A4602A800F023FE411C7B
:1005700007D02178890603D5E269391891420DD850
:100580000744761C2078800602D5E069B84205DD74
:10059000AE42E6DB3AF816000028E2D1A069C01BA3
:1005A000A0612046FFF7FDFED8E90010CDE900105C
:1005B000002017E03AF818106A4602A800F0FAFD89
:1005C000B0F1FF3F81460BD000250DF1080B05E08F
:1005D000D4E901211BF8050090476D1C4D45F7D368
:1005E00008F10100B0428046E4DB206A3844206212
:1005F0002046FFF7ECFEBDE8FF9F00000E6A0000FA
:100600002DE9F0418046D21D22F007020025D2E9F3
:100610000002F52915A614D0011E72F1000106DAB8
:100620000023D0EB030063EB020211A608E0D8F828
:1006300000108B0701D50FA602E0490701D50EA6D1
:1006400001251146002408F1240704E000F05CF9BC
:1006500030323A55641C50EA0102F7D12B4632463B
:1006600021464046BDE8F04100F093B9000000008B
:100670002D0000002B0000002000000030B40021FD
:1006800000F1240408E002F00705D208303542EA00
:100690004372DB086554491C52EA0305F3D1046830
:1006A000002310A2250708D504F020040C4304D031
:1006B000C46901230CA2641EC46130BC00F069B996
:1006C00010B5044621461068FFF79BFE02462046FF
:1006D000BDE810400023D1E7D21D22F00701D1E987
:1006E0000023CBE70000000030000000F0B40D460E
:1006F0000188090502D5214C7C4402E01F4C7C4452
:100700000E34002100F1240608E002F00F07120960
:10071000E75D42EA03721B097754491C52EA03075A
:10072000F3D102780023120704D5702D06D009B149
:10073000022311342246F0BC00F02BB901231034FF
:10074000F8E770B504460D4621461068FFF759FEDC
:10075000024629462046BDE870400023C6E7D21D68
:1007600022F00703D3E90023C0E70368126843F0CF
:10077000200303600823C3610023B7E7706800000B
:100780002DE9F05F894604464FF0000ADFF874B1A6
:10079000FB44C0F820A02046E1688847002874D0B8
:1007A000252806D0D4E901219047206A401C206208
:1007B000F1E700265F462046E16888472028054685
:1007C00007DB312D05D2781910F8200C08B106434B
:1007D000F1E7B00701D526F00406C4F81CA00027F5
:1007E000C4F818A02A2D09D0284606F0E9F838B335
:1007F00004EB8708303DC8F8185019E059F8041B7D
:10080000204604EB87029161E1688847012F054685
:1008100018D1E069002820DA26F020061DE0D8F87B
:10082000180000EB800005EB40003038C8F81800D5
:100830002046E1688847054606F0C2F80028EED158
:10084000012F0AD02E2D08D12046E16888477F1C51
:100850000546022F46F02006C4DBA069002803DA13
:10086000404246F00106A061F00701D026F01006D4
:100870006C2D0BD0682D09D04C2D39D06A2D35D078
:10088000742D35D07A2D33D016E038E0E1682F464C
:1008900020468847B842054609D16C2F26D04FF430
:1008A0008060E168064320468847054604E06C2FD7
:1008B0001AD04FF4807006430DB3A5F141001928FA
:1008C00002D8203546F400664A462946204626606E
:1008D0004E46FFF75BFC80B101280BD0F61D26F0D9
:1008E000070000F1080956E74020E4E78020D8E738
:1008F0000020D6E706F104094DE7284652E7206AB2
:10090000BDE8F09F0068000030B5B0F10A0271F157
:1009100000034FEA900E4EEA817EB0EB0E0061EBD1
:1009200091014FEA101E4EEA017E10EB0E0041EBE2
:1009300011114FEA102E4EEA016E10EB0E0041EB42
:1009400011214FEA104E4EEA014E10EB0E0041EB22
:100950001141401841F100014FEAD00040EA4170D6
:100960004FEAD1014FEA810444EA907410EB80050C
:1009700044EB01046D1944EB0404521BA3414FF0F6
:10098000000348BF0A3200D530BD401C41F10001D0
:1009900030BD2DE9F0470D4699469246044600F1D8
:1009A00024080168880604D5E06921F0100121605F
:1009B00000E00120A84201DD471B00E00027A169FB
:1009C0007A1902EB0900081AA0612078C00602D447
:1009D0002046FFF7E6FC002608E0D4E901211AF8DA
:1009E00006009047206A401C761C20624E45F4DBCE
:1009F0002078C0060AD52046FFF7D3FC06E0D4E9EC
:100A0000012130209047206A401C2062381EA7F147
:100A10000107F4DC07E0D4E9012118F8050090474C
:100A2000206A401C2062281EA5F10105F3DC204647
:100A3000FFF7CDFC2078000602D50220BDE8F08744
:100A40000120FBE72DE9FF4F0C461E464FF0FF3714
:100A50008BB0D2E90001DDF860800A908A46C1F3CC
:100A60000A5505B93D46002108464FF00000BAF18D
:100A7000000F00F4400005DA00EB80004FF4400165
:100A800001EA50004FEA9059B9F1010F00DDB94673
:100A90000A9850EA4A000ED044F61050A5F2FF35ED
:100AA00045432F14B8F1000F1ED07542291E1EDDDC
:100AB000C9F100021CE0B8F1010F4FF0000001D0B5
:100AC000302103E0F24305E02154401CB042FBDB3F
:100AD00030460022002121540B99C1F80880C1E959
:100AE00000200FB0BDE8F08FBD1B6D1CDEE74A464D
:100AF00000DA694206A800F0F3FB06AB93E80700B2
:100B000003AB83E8070050460A9905F07DFB8DE8AA
:100B10000700A0F500501F3800900398002D0ADD53
:100B200042F21F014A460844002303A90390684685
:100B300005F0E6FD09E0A0F500504A461F38002305
:100B400003A90390684605F0F0FD8DE80700000456
:100B5000000C03D04FF0FF30410800E01046B8F120
:100B6000000F03D00022009215461EE0751E05D42A
:100B7000FFF7CAFE303262556D1EF9D5B346012229
:100B8000084302D000227F1C04E02078302801D1E5
:100B900000227F1E002A099784D01DE0112D07DA5C
:100BA000FFF7B2FE303262556D1C50EA0102F5D1FA
:100BB000084302D00098C8B10EE00021681E05E08D
:100BC000235C625C63542254401E491C8142F7DB63
:100BD000AB46A81B401E0990002004F80B000B98A0
:100BE000099AC0F80880C0E9002B7AE711264FF077
:100BF000000857E72DE9F04F88460446D21D22F041
:100C0000070191B0D1E90001CDE90A0105F0C4FE68
:100C100002460B98C00F01D02D2007E02068810705
:100C200001D52B2002E0202101EAC000032A09900F
:100C300001D0072A05DB03464146204600F010FBA1
:100C40000BE12078800601D5E06900E00620B8F1CC
:100C5000650F814606D0B8F1660F18D0B8F1670F5E
:100C600070D131E00020B9F1110F009001DB1123A8
:100C700001E009F101030AAA01A90CA8FFF7E2FEAD
:100C8000DDE90C70002609F10105834647E00120EB
:100C90004B4600904FF000470AAA01A90CA8FFF7A5
:100CA000D1FEDDE90DB00C995D46002610B909F1C1
:100CB00001000D18B9EB050003D4C0F1FF3609F1AE
:100CC0000105A5EB09002BE0B9F1010F01DA4FF0A6
:100CD00001090020B9F1110F0090484601DD1123F0
:100CE00000E003460AAA01A90CA8FFF7ABFEDDE964
:100CF0000C704D4600268346207800070AD4AB4589
:100D000000DA5D4601A8012D04DD411911F8011C2E
:100D1000302907D04F4502DA17F1040F04DA012019
:100D200082460FE06D1EEEE7002F02DCED1B3E4415
:100D300003E0781CA84200DD7D1CB81B00F1010A0D
:100D40004FF000472078000703D4AA4501DB4FF09D
:100D5000FF3A0021B7F1004F0DF143088DF8431021
:100D600024D002202B23002F01DA7F422D230A21D9
:100D7000021EA0F1010000DC5FB197FBF1FC97FBC4
:100D8000F1F201FB1C7C17460CF1300C08F801CD88
:100D9000EEE7A8F1010003702188090501D545217E
:100DA00000E06521A0F1010800F8011C09980FA9D5
:100DB000A1EB0807FF1D00B10120411901EBEA700A
:100DC000A1693844081A401EA0612078C00602D4E8
:100DD0002046FFF7E6FA099828B1D4E901219047A7
:100DE000206A401C20622078C00622D52046FFF7EA
:100DF000D8FA1EE0002E04DBB34502DD01A8805DB9
:100E000000E03020D4E901219047206A401C206294
:100E1000761CAAF101005FEA000A0AD100F01CFA70
:100E2000C0680168405CD4E901219047206A401CF9
:100E30002062281EA5F10105DCDC07E0D4E90121D0
:100E400018F8010B9047206A401C2062381EA7F159
:100E50000107F3DC2046FFF7BAFA032011B041E6A0
:100E60002DE9F04F04460D46D21D22F0070089B04F
:100E7000D0E900974846394605F08EFD0246F80F46
:100E800001D02D2307E02068810701D52B2302E044
:100E9000202101EAC0038DF820300BB1012000E0D1
:100EA0000020032A824601D0072A04DB2946204677
:100EB00000F0D6F93FE12078800601D40D2500E04E
:100EC000E569C7F30A560D2D49DA00214FEA175B91
:100ED00008464FF00000002F00F4400007DA00EB56
:100EE00080004FF4400100EBD07001EA60008115F2
:100EF000012901DD4FF0FF3100224FEA850CBCF1E2
:100F0000180F06D31346ACF118004FF08052C240C0
:100F100003E04FF4801323FA0CF30CF10C0CBCF13A
:100F2000200F04D3ACF1200C09FA0CF001E007FA11
:100F30000CF000294FF0004801DD18B90FE00ED188
:100F400040450CD319EB02095F4121B9404502D15C
:100F50009F4329EA0209BBEB175F00D0761C20886B
:100F6000000502D57B48784402E07A487844193875
:100F700008AA302302F80A30037C0AF10101002E8E
:100F80000AF1020A53546A4602DC4FF0300101E0D4
:100F90004FF031014FF001088DF8001002D0A6F299
:100FA000FF3603E059EA470100D06B4E002D02DC0A
:100FB0002178090704D54FF002082E218DF8011081
:100FC000C44600210BE0C7F303433F01C35C491C47
:100FD0006D1E02F80830052908F1010801DA002D1C
:100FE000F1DC00210CE000EB1973491C1B786D1E2D
:100FF000082902F808304FEA091908F1010801DA56
:10100000002DF0DC21688B0602D516E0A8F101085E
:10101000E04505DD02EB080313F8013C302BF5D069
:10102000B8F1000F09DD02EB080313F8013C2E2B89
:1010300003D1090701D4A8F10108002D05DD3E21E7
:1010400002F808106D1E08F10108407C002E02F81D
:10105000080008F1010804DA2D20764202F80800A1
:1010600002E02B2002F808000A214FF47A70864231
:1010700008F101080BDB96FBF0F3303302F808307F
:1010800096FBF0F308F1010800FB136601E0642E03
:101090000CDB642096FBF0F3303302F8083096FB4B
:1010A000F0F308F1010800FB136601E00A2E06DBED
:1010B00096FBF1F0303002F8080008F1010896FBC9
:1010C000F1F001FB1060303002F80800A16908F16E
:1010D000010808EB050202EB0A00081AA06120785B
:1010E000C00602D42046FFF75CF9216A08AE01EB86
:1010F0000A00206204E0D4E9012116F8010B9047B0
:10110000BAF1010AF7D22078C00602D52046FFF7CF
:1011100048F96E4609E016F8010B3E280FD0D4E9D5
:1011200001219047206A401C2062B8F10108F2D2E8
:101130002046FFF74CF909B00320BDE8F08F206A84
:101140002844206203E0D4E90121302090476D1E3D
:10115000EBD3F8E74E60000002FCFFFF10B54369D7
:1011600013B1AFF3008001E0FFF754F9012010BD87
:10117000127800F124010A7000224A700122EDE782
:1011800011684FF0FF32E9E710B5436913B1AFF3CF
:10119000008001E0FFF7D6F9012010BD128800F1B0
:1011A000240182840022C2840122EDE711684FF0FD
:1011B000FF32E9E72DE9F04116460C46054600F0FE
:1011C00043F8036893F80101012807D0FF2C12D8D7
:1011D000185D80B101202C70BDE8F081D3F80701C3
:1011E0003246214603F20713C7182846BC46BDE81D
:1011F000F041002360474FF0FF30EDE7754600F007
:10120000EBF8AE4605006946534620F007008546D8
:1012100018B020B5FFF732F8BDE820404FF00006C7
:101220004FF000074FF000084FF0000BAC46ACE861
:10123000C009ACE8C009ACE8C009ACE8C00921F0BD
:1012400007018D467047000010B500F005F8001D3D
:1012500010BD00BFA957000000487047480000209B
:101260002DE9F0411F46044603260168072A01F4D0
:10127000006004DB08B116A505E016A503E008B17F
:1012800015A500E015A521F010002060A069C01E82
:10129000A0610FB1401EA0612046FFF782F84FB158
:1012A000D4E9012138469047206A401C2062C01CC6
:1012B000206206E0206AFAE7D4E9012115F8010B63
:1012C0009047761EF8D22046FFF781F8BDE8F081FE
:1012D0004E414E006E616E00494E4600696E6600DA
:1012E0002DE9F047814616468AB0354878440DC846
:1012F0008DE80D0032487844801C03AC0DC884E8AA
:101300000D0041F69B300844372190FBF1F290FB31
:10131000F1F5A5F1800501FB12041B3C02D56442E6
:10132000012000E00020DFF898A080460027FA4462
:10133000AAF1BE0A0EE0E0070AD03246684607EB83
:10134000470101230AEB810105F0EFF98DE8070061
:1013500064107F1C002CEED1194F7F44AE3F19E082
:10136000E80715D007EB04100DF1180A90E80E00FD
:101370008AE80E00C068F04201D198190890324600
:10138000012306A903A805F0D0F903AB83E8070001
:101390006D10641C002DE3D14FF001033246694605
:1013A000B8F1000F03A802D005F0AAF901E005F09A
:1013B000BCF9C9E90001C9F808200AB0BDE8F08706
:1013C000585D000010B50446AFF300802046BDE82C
:1013D0001040FEF73EBF0000004870472800002084
:1013E00001491820ABBEFEE726000200704700004E
:1013F00080B586B0059002F099FE059802F0FEFDDA
:10140000962003F001FC40F60000C4F201000190B8
:101410004FF4006100910122039200F095FB0198C6
:101420004FF4805102910022049200F08DFB322093
:1014300000F0ACF800F0C4F8049803F0E5FB009964
:101440000198049A00F080FB01980299039A00F039
:101450007BFB049840F28D01C2F20001087002F09B
:1014600065FE802002F012FE47F21130C0F6000047
:1014700002F0C4FD00F080FB40F2B811C2F200019E
:10148000086006B080BD000080B582B00090009872
:1014900040F20001C2F2000109680068884204D1EC
:1014A000FFE702208DF8070052E0009840F290011B
:1014B000C2F2000103F01EFA20B1FFE703208DF80D
:1014C000070045E040F2A500C2F2000000780528C0
:1014D00024DBFFE702F02AFE142000F06BF98020E5
:1014E00002F0D4FD47F23330C0F6000002F086FD72
:1014F000C02002F0CBFD47F22130C0F6000002F020
:101500007DFD03203222114600F0F0F84FF4FA601E
:1015100000F050F900208DF8070019E040F2A50115
:10152000C2F20001087800EB800E40F2A60CC2F275
:10153000000C0CEB0E02009803684CF80E3000799A
:10154000107108780130087001208DF80700FFE75E
:101550009DF8070002B080BD80B582B0019001986F
:10156000142102F0EDFE8DF803009DF8030000F059
:101570000300032806D0FFE701981421032202F09C
:1015800045FFFFE702B080BDFFE7FEE780B584B00E
:10159000ADF80E0040F60000C4F2010001904FF4D7
:1015A00080710291012200F0CFFABDF80E0000F028
:1015B00001F901980299002200F0C6FA04B080BD3A
:1015C00080B582B009200190FFE7019800281BD464
:1015D000FFE7802002F05AFD019A40F2BD10C2F2EE
:1015E0000000009047F2E921C0F60001FEF758FE26
:1015F000009802F003FD4FF47A7000F0DBF8FFE78B
:10160000019801380190E0E702B080BD704700000A
:1016100080B584B0029000200190FFE7019840F26D
:10162000A501C2F20001097888424FDAFFE702996A
:10163000019800EB800240F2A600C2F200000244D2
:1016400040F29000C2F2000002F0FEFDC8BBFFE7CE
:10165000019840F2A501C2F20001097801398842DF
:1016600019DAFFE7019800EB800C40F2A603C2F202
:10167000000303EB0C0140F2A500C2F20000007869
:1016800000EB8000184450F8052C43F80C2010F8AB
:10169000010C0871FFE740F2A500C2F200000178DA
:1016A00001390170007800EB800340F2A602C2F21B
:1016B0000002D1180020D050087101208DF80F00D1
:1016C00008E0FFE7019801300190A7E700208DF8BE
:1016D0000F00FFE79DF80F0004B080BD81B0EFF36D
:1016E000108072B60090FFE7FEE7000080B588B07A
:1016F0008DF81F00ADF81C10ADF81A2001208DF8F0
:1017000019008DF8180000208DF81700FFE79DF8EC
:1017100017009DF81F10884235DAFFE79DF8192061
:1017200040F60000C4F2010003904FF48071029172
:1017300000F00AFA03989DF818204FF480510491A4
:1017400000F002FABDF81C0000F034F8029903988A
:101750009DF81920B2FA82F2520900F0F5F90398C7
:1017600004999DF81820B2FA82F2520900F0ECF9BF
:10177000BDF81A0000F01EF8FFE79DF817000130D1
:101780008DF81700C3E79DF8182040F60000C4F25A
:10179000010001904FF4805100F0D6F901989DF8B6
:1017A0001910B1FA81F14A094FF4807100F0CCF9B7
:1017B00008B080BD80B584B0039000F0DDF90290E0
:1017C000039801900198013048B1FFE740F22000F2
:1017D000C2F200000178019808440190FFE7FFE79A
:1017E00000F0CAF90299401A0199884201D2FFE734
:1017F000F6E704B080BD000090B00F900E9100207D
:101800000D900990FFE70E9800680D99C8400028D8
:1018100000F07F81FFE70D99012088400C900E9821
:1018200000680C9908400B900B980C99884240F086
:101830006C81FFE70E9840680590002851D0FFE7C3
:10184000059801283AD0FFE7059802283FD0FFE726
:10185000059803285FD0FFE70598112832D0FFE7ED
:101860000598122838D0FFE705980021C1F2110130
:10187000884236D0FFE705980021C1F21201884264
:101880002FD0FFE705980021C1F22101884228D01E
:10189000FFE705980021C1F22201884221D0FFE72D
:1018A00005980021C1F2310188421AD0FFE705985E
:1018B0000021C1F23201884213D02FE00E98C06897
:1018C00009902CE00E98C0680430099027E00E982B
:1018D000C0680830099022E00E98C0680C3009906A
:1018E0001DE00E98806818B9FFE70420099011E008
:1018F0000E988068012806D1FFE7082009900C980F
:101900000F99086105E0082009900C980F9948612B
:10191000FFE7FFE703E00020099000E0FFE70B98F6
:10192000FF2803D8FFE70F98049003E00F980430D6
:101930000490FFE7049808900B98FF2804D8FFE76D
:101940000D988000039006E00D996FF01F0000EBEA
:1019500081000390FFE70398079008980068079AB2
:101960000F219140884309999140084308990860E4
:101970000E98C079C006002840F1C680FFE7FFE757
:1019800041F21800C4F20200016841F00101016057
:10199000006800F0010006900698FFE70D9820F01F
:1019A00003000821C4F2010140580A900D9800F08C
:1019B000030081000F2000FA01F10A9888430A9081
:1019C0000F9840F60001C4F20101884203D1FFE7FD
:1019D0000020029026E00F9840F60041C4F2010179
:1019E000884203D1FFE70120019018E00F9841F2EF
:1019F0000001C4F20101884203D1FFE702200090F8
:101A00000AE00F9941F20042C4F20102042091421F
:101A100008BF03200090FFE700980190FFE70198BE
:101A20000290FFE702980D9901F00301890000FA86
:101A300001F10A9808430A900A980D9921F00301D0
:101A40000822C4F2010288500E988079C00748B17C
:101A5000FFE70B9A40F20041C4F20101086810430D
:101A6000086008E00B9A40F20041C4F201010868E6
:101A700090430860FFE70E9880798007002809D519
:101A8000FFE70B9A40F20441C4F2010108681043D9
:101A9000086008E00B9A40F20441C4F201010868B2
:101AA00090430860FFE70E988079C006002809D5AA
:101AB000FFE70B9A40F20841C4F2010108681043A5
:101AC000086008E00B9A40F20841C4F2010108687E
:101AD00090430860FFE70E9880798006002809D5BA
:101AE000FFE70B9A40F20C41C4F201010868104371
:101AF000086008E00B9A40F20C41C4F2010108684A
:101B000090430860FFE7FFE7FFE70D9801300D9075
:101B100079E610B07047000082B00190ADF8021075
:101B200001988068BDF80210084204D0FFE7012048
:101B30008DF8010003E000208DF80100FFE79DF81B
:101B4000010002B07047000082B00190ADF80210B1
:101B50008DF801209DF8010028B1FFE7BDF80200D3
:101B60000199086105E0BDF80200000401990861CF
:101B7000FFE702B07047000040F2D410C2F200004C
:101B80000068704780B58EB00C900C9820B9FFE7C4
:101B900001208DF8370037E10C9890F83D0040B9EE
:101BA000FFE70C99002081F83C000C9800F036FA11
:101BB000FFE70C99242081F83D000C980168086823
:101BC00020F00100086000F049FC0A900C98406881
:101BD00048F2A061C0F2010188420BD8FFE70A99E0
:101BE00048F28042C0F21E020020914238BF01201C
:101BF00009900AE00A9940F60012C0F23D02002066
:101C0000914238BF01200990FFE70998012804D1CB
:101C1000FFE701208DF83700F6E00A984DF6836162
:101C2000C4F21B31A0FB0110800C0B900C980068D3
:101C3000406820F03F000B9908430C990968486000
:101C40000C980068006A20F03F0008900C984068EB
:101C500048F2A061C0F20101884204D8FFE70B9866
:101C6000013007900EE00B984FF49671484344F60C
:101C7000D351C1F26201A0FB0101012000EB9110E0
:101C80000790FFE70898079908430C9909680862CC
:101C90000C980068C0694CF6FF71884306900C9858
:101CA000406848F2A061C0F2010188421FD8FFE7F6
:101CB0000A9801380C9949684900B0FBF1F00130ED
:101CC0006FF31F30032803D8FFE7042005900BE0D3
:101CD0000A9801380C9949684900B0FBF1F00130CD
:101CE0006FF31F300590FFE7059804904CE00C98C7
:101CF000806868B9FFE70A9801380C99496801EBD8
:101D00004101B0FBF1F001306FF31F3003900DE0A3
:101D10000A9801380C99496819225143B0FBF1F037
:101D20000130042161F31F300390FFE703980005A1
:101D300018B9FFE70120029023E00C98806868B989
:101D4000FFE70A9801380C99496801EB4101B0FBA3
:101D5000F1F001306FF31F3001900DE00A98013867
:101D60000C99496819225143B0FBF1F0013004216C
:101D700061F31F300190FFE7019840F400400290AA
:101D8000FFE702980490FFE70698049908430C992E
:101D90000968C8610C980068006820F0C0000C9BBE
:101DA0001968DA691B6A1A43104308600C980068C6
:101DB000806848F2FF3188430C9A1168D368126931
:101DC0001A43104388600C980068C06820F0FF0038
:101DD0000C9B19685A699B691A431043C8600C9898
:101DE0000168086840F0010008600C990020086450
:101DF0000C9A202182F83D100C9908630C9981F807
:101E00003E008DF83700FFE79DF837000EB080BD2B
:101E100080B588B0DDF828C00690ADF816100492A1
:101E2000ADF80E30FFF7A8FE0290069890F83D003E
:101E3000202840F0EB80FFE7069802996A4611607F
:101E40000221C0F210010122192301F0F5FE20B198
:101E5000FFE702208DF81F00DCE0FFE7069890F80E
:101E60003C00012804D1FFE702208DF81F00D1E0DB
:101E70000699012081F83C00FFE7FFE7069800681B
:101E8000006800F00100012807D0FFE7069801680C
:101E9000086840F001000860FFE7069801680868DC
:101EA00020F4006008600699212081F83D00069921
:101EB000102081F83E0006990020086404980699D5
:101EC0004862BDF80E00069948850698408D06992F
:101ED000088506990020CFF6FF70C8620698BDF805
:101EE00016100A9A029B01F0DDFD20B1FFE70120E8
:101EF0008DF81F008EE0FFE7002001900698006833
:101F00004069019006980068806901900198FFE798
:101F1000FFE70698008D002860D0FFE706980A9931
:101F2000029A01F071FF80B1FFE70698006C042867
:101F300007D1FFE706980168086840F40070086060
:101F4000FFE701208DF81F0064E006980168406AF1
:101F5000007808610699486A013048620699488D00
:101F6000013848850699088D01380885069800686B
:101F7000406900F004010120B0EB910F16D1FFE79A
:101F80000698008D90B1FFE706980168406A0078D6
:101F900008610699486A013048620699488D0138FF
:101FA00048850699088D01380885FFE706980A9943
:101FB000029A01F0F5FD80B1FFE70698006C042855
:101FC00007D1FFE706980168086840F400700860D0
:101FD000FFE701208DF81F001CE09AE706980168D2
:101FE000086840F4007008600699202081F83D00E0
:101FF0000699002081F83E00FFE70699002081F84D
:102000003C00FFE700208DF81F0003E002208DF860
:102010001F00FFE79DF81F0008B080BD80B588B0A5
:1020200007900020069005900490039007980068A0
:1020300045F20041C4F2000188422CD1FFE7FFE7DE
:1020400041F21800C4F20200016841F00801016089
:10205000006800F0080002900298FFE7C02003909B
:10206000122004900320069040F60040C4F20100C4
:1020700003A9FFF7C1FBFFE741F21C00C4F2020015
:10208000016841F400110160006800F40010019043
:102090000198FFE7FFE708B080BD000040F2200094
:1020A000C2F20000027840F2D411C2F200010868C6
:1020B000104408607047000080B542F20001C4F28D
:1020C0000201086840F010000860032000F08CF85E
:1020D0000F2000F005F800F03BF8002080BD000064
:1020E00080B582B0009040F20400C2F200000068A7
:1020F00040F22001C2F200010A784FF47A71B1FB7C
:10210000F2F1B0FBF1F001F017FA20B1FFE7012086
:102110008DF8070018E000980F280DD8FFE7009908
:102120004FF0FF30002200F045F8009840F2240103
:10213000C2F20001086003E001208DF8070003E00F
:1021400000208DF80700FFE79DF8070002B080BD72
:1021500083B0FFE741F21800C4F20200016841F0C9
:1021600001010160006800F0010002900298FFE7A1
:10217000FFE741F21C00C4F20200016841F0805107
:102180000160006800F0805001900198FFE7FFE7D0
:102190000421C4F2010108680090009820F0E0607A
:1021A0000090009840F00070009000980860FFE7F1
:1021B00003B0704780B586B08DF817000491039284
:1021C0000020029003F0B4F802909DF917000190EE
:1021D00002980499039A02F0BFFB0146019803F0AC
:1021E000AFF806B080BD000080B582B001900198C4
:1021F00003F0C8F802B080BD80B584B002900191B0
:10220000029820B9FFE701208DF80F001BE101982B
:1022100042F20001C4F20201096801F0070188429C
:1022200016D9FFE742F20000C4F20200016821F073
:102230000701019A11430160006800F0070001994D
:10224000884204D0FFE701208DF80F00FBE0FFE794
:1022500002980078800700282AD5FFE702980078C6
:102260004007002809D5FFE741F20401C4F202014A
:10227000086840F4E0600860FFE702980078000713
:10228000002809D5FFE741F20401C4F20201086801
:1022900040F460500860FFE741F20401C4F202011B
:1022A000086820F0F000029A926810430860FFE787
:1022B00002980078C007002860D0FFE702984068C5
:1022C00001280ED1FFE741F20000C4F202000068CD
:1022D0008003002804D4FFE701208DF80F00B2E04E
:1022E00021E00298406802280ED1FFE741F2000089
:1022F000C4F2020000688001002804D4FFE7012036
:102300008DF80F009FE00DE041F20000C4F20200E2
:1023100000688007002804D4FFE701208DF80F0033
:1023200091E0FFE7FFE741F20401C4F2020108680F
:1023300020F00300029A526810430860FFF71CFC6B
:102340000090FFE741F20400C4F20200006800F0D0
:102350000C0002994968B0EB810F0ED0FFE7FFF740
:102360000BFC0099401A41F28931884204D3FFE7FF
:1023700003208DF80F0066E0E4E7FFE7019842F2E2
:102380000001C4F20201096801F00701884216D277
:10239000FFE742F20000C4F20200016821F00701E9
:1023A000019A11430160006800F00700019988421A
:1023B00004D0FFE701208DF80F0044E0FFE702980A
:1023C0000078400700280CD5FFE741F20401C4F271
:1023D0000201086820F4E060029AD26810430860A5
:1023E000FFE702980078000700280DD5FFE741F2CB
:1023F0000401C4F20201086820F46050029A1269D4
:1024000040EAC2000860FFE700F03AF841F2040138
:10241000C4F202010968C9B20A0947F26001C0F6B4
:102420000001895CC84040F20401C2F2000108606A
:1024300040F22400C2F200000068FFF751FE0020C5
:102440008DF80F00FFE79DF80F0004B080BD00007D
:1024500040F20400C2F200000068704780B5FFF748
:10246000F7FF41F20401C4F202010968C1F302223C
:1024700047F27001C0F60001895CC84080BD0000D1
:102480008BB040F60E70C1F210000A9040F60A3090
:10249000C0F60C50099040F20670C0F60810089083
:1024A00040F20230C0F20450079040F20120ADF833
:1024B0001A0000200590049003900290019041F2D0
:1024C0000400C4F2020000680590059800F00C00BA
:1024D00001460091E0B3FFE70098042804D0FFE72D
:1024E0000098082806D034E041F20020C0F27A00BB
:1024F000019034E00598C0F3834107A8405C029046
:102500009DF81600C007C0B1FFE741F20400C4F215
:102510000200006800F400310DF11A0040EA514059
:1025200000780490029841F20021C0F27A014843F9
:102530000499B0FBF1F0039007E0029840F6001117
:10254000C0F23D0148430390FFE70398019006E085
:10255000FFE741F20020C0F27A000190FFE7019806
:102560000BB0704780B586B00490049820B9FFE79F
:1025700001208DF817002EE304980078C00700288A
:1025800000F0AE80FFE741F20400C4F202000068F0
:1025900000F00C00042813D0FFE741F20400C4F25D
:1025A0000200006800F00C0008281BD1FFE741F290
:1025B0000400C4F202000068C003002812D5FFE73F
:1025C00041F20000C4F2020000688003002808D530
:1025D000FFE70498406820B9FFE701208DF8170055
:1025E000F9E27CE0FFE704984068B0F5803F09D14C
:1025F000FFE741F20001C4F20201086840F48030B4
:10260000086032E00498406868B9FFE741F20001D1
:10261000C4F20201086820F480300860086820F4E1
:102620008020086020E004984068B0F5A02F0DD10C
:10263000FFE741F20001C4F20201086840F4802083
:102640000860086840F4803008600CE041F2000146
:10265000C4F20201086820F480300860086820F4A1
:1026600080200860FFE7FFE7FFE7FFE70498406886
:10267000D0B1FFE7FFF780FA0390FFE741F20000D7
:10268000C4F202000068800300280CD4FFE7FFF7C3
:1026900073FA0399401A652804D3FFE703208DF8E5
:1026A000170098E2EAE719E0FFF766FA0390FFE700
:1026B00041F20000C4F202000068800300280CD53B
:1026C000FFE7FFF759FA0399401A652804D3FFE79B
:1026D00003208DF817007EE2EAE7FFE7FFE7FFE758
:1026E000049800788007002840F18D80FFE741F2D0
:1026F0000400C4F20200006810F00C0F13D0FFE7D2
:1027000041F20400C4F20200006800F00C00082846
:1027100029D1FFE741F20400C4F202000068C003BF
:10272000002820D4FFE741F20000C4F20200006854
:102730008007002809D5FFE704980069012804D024
:10274000FFE701208DF8170045E241F20001C4F2D5
:102750000201086820F0F800049A526940EAC200B9
:102760000860FFE74EE00498006958B3FFE70021D6
:10277000C4F2422101200860FFF7FEF90390FFE751
:1027800041F20000C4F202000068800700280CD467
:10279000FFE7FFF7F1F90399401A032804D3FFE795
:1027A00003208DF8170016E2EAE741F20001C4F2B7
:1027B0000201086820F0F800049A526940EAC20059
:1027C00008601EE00021C4F2422100200860FFF7EB
:1027D000D3F90390FFE741F20000C4F20200006861
:1027E000800700280CD5FFE7FFF7C6F90399401AC8
:1027F000032804D3FFE703208DF81700EBE1EAE795
:10280000FFE7FFE7FFE7049800780007002848D5B6
:10281000FFE70498806918B3FFE740F28041C4F2F3
:10282000422101200860FFF7A7F90390FFE741F27A
:102830002400C4F202000068800700280CD4FFE7DF
:10284000FFF79AF90399401A032804D3FFE70320FE
:102850008DF81700BFE1EAE7012002F0B5F81FE0AC
:1028600040F28041C4F2422100200860FFF784F961
:102870000390FFE741F22400C4F2020000688007E1
:1028800000280CD5FFE7FFF777F90399401A0328D2
:1028900004D3FFE703208DF817009CE1EAE7FFE788
:1028A000FFE7049800784007002840F1D880FFE750
:1028B00000208DF8070041F21C00C4F202000068FD
:1028C000C000002813D4FFE7FFE741F21C00C4F268
:1028D0000200016841F080510160006800F0805002
:1028E00000900098FFE701208DF80700FFE747F20E
:1028F0000000C4F200000068C005002822D4FFE7F1
:1029000047F20001C4F20001086840F480700860DA
:10291000FFF732F90390FFE747F20000C4F200002E
:102920000068C00500280CD4FFE7FFF725F90399DC
:10293000401A652804D3FFE703208DF817004AE109
:10294000EAE7FFE7FFE70498C068012809D1FFE73D
:1029500041F22001C4F20201086840F00100086061
:1029600031E00498C06868B9FFE741F22001C4F281
:102970000201086820F001000860086820F00400E7
:1029800008601FE00498C06805280DD1FFE741F2F8
:102990002001C4F20201086840F0040008600868E1
:1029A00040F0010008600CE041F22001C4F2020195
:1029B000086820F001000860086820F00400086042
:1029C000FFE7FFE7FFE7FFE70498C068E0B1FFE734
:1029D000FFF7D2F80390FFE741F22000C4F20200B3
:1029E0000068800700280ED4FFE7FFF7C5F80399B9
:1029F000401A41F28931884204D3FFE703208DF861
:102A00001700E8E0E8E71BE0FFF7B6F80390FFE700
:102A100041F22000C4F202000068800700280ED5B1
:102A2000FFE7FFF7A9F80399401A41F2893188427C
:102A300004D3FFE703208DF81700CCE0E8E7FFE7B9
:102A40009DF80700012809D1FFE741F21C01C4F2FB
:102A50000201086820F080500860FFE7FFE7049853
:102A6000C069002800F0B380FFE741F20400C4F21F
:102A70000200006800F00C00082800F08280FFE7E8
:102A80000498C06902285CD1FFE76021C4F24221AA
:102A900000200860FFF770F80390FFE741F20000A4
:102AA000C4F202000068800100280CD5FFE7FFF7A0
:102AB00063F80399401A032804D3FFE703208DF835
:102AC000170088E0EAE70498006AB0F5803F0CD16F
:102AD000FFE741F20401C4F20201086820F400306B
:102AE000049A926810430860FFE741F20401C4F2BF
:102AF0000201086820F47410049B1A6A5B6A1A4386
:102B0000104308606021C4F2422101200860FFF7F1
:102B100033F80390FFE741F20000C4F202000068BE
:102B2000800100280CD4FFE7FFF726F80399401A2C
:102B3000032804D3FFE703208DF817004BE0EAE7F2
:102B40001EE06021C4F2422100200860FFF714F863
:102B50000390FFE741F20000C4F202000068800128
:102B600000280CD5FFE7FFF707F80399401A032860
:102B700004D3FFE703208DF817002CE0EAE7FFE716
:102B800024E00498C069012804D1FFE701208DF8F2
:102B9000170020E041F20400C4F202000068029035
:102BA000029800F480300499096A884208D1FFE74E
:102BB000029800F470100499496A884204D0FFE733
:102BC00001208DF8170006E0FFE7FFE7FFE7002090
:102BD0008DF81700FFE79DF8170006B080BD0000D4
:102BE00080B584B00290029820B9FFE701208DF8EB
:102BF0000F004EE00298406A08B9FFE7FFE702992C
:102C000000208862029890F8510040B9FFE70299CD
:102C1000002081F85000029800F040F8FFE7029988
:102C2000022081F8510002980168086820F04000F5
:102C30000860029A019211685068D2F808C0D368FF
:102C400040EA0C0018431369184353691843936909
:102C500003F400731843D3691843136A1843926A44
:102C600010430860029801688269042000EA12405B
:102C7000486002980168C86920F40060C861029940
:102C800000204865029A012182F851108DF80F004A
:102C9000FFE79DF80F0004B080BD000080B58AB04A
:102CA0000990002008900790069005900998006808
:102CB00043F60001C4F20001884239D1FFE7FFE783
:102CC00041F21C00C4F20200016841F4804101603D
:102CD000006800F4804004900498FFE7FFE741F2A9
:102CE0001800C4F20200016841F0080101600068A8
:102CF00000F0080003900398FFE74FF42040059090
:102D0000022006900320089040F60040C4F2010023
:102D1000019005A90291FEF76FFD019802994FF409
:102D200080420592002206920792FEF765FDFFE7BA
:102D30000AB080BD80B588B006900591ADF812202C
:102D4000039300208DF8070006984068B0F5827F55
:102D500016D1FFE70698806890B9FFE7069904202E
:102D600081F851000698059ABDF812300399EC4697
:102D7000CCF80010114600F02BFA8DF81F00E7E0A8
:102D8000FFE7069890F85000012804D1FFE70220E1
:102D90008DF81F00DCE00699012081F85000FFE764
:102DA000FFE7FEF7E9FE0290069890F8510001282F
:102DB00004D0FFE702208DF80700BAE0059820B1A3
:102DC000FFE7BDF8120020B9FFE701208DF80700EA
:102DD000AFE00699042081F851000699002048656B
:102DE0000599069A9163BDF81210069A9187BDF86D
:102DF0001210069AD1870699086306998886069963
:102E0000C886069908640699486406988068B0F5F3
:102E1000004F07D1FFE706980168086820F480405A
:102E20000860FFE706980068006800F0400040284E
:102E300007D0FFE706980168086840F04000086086
:102E4000FFE70698C06880BBFFE7FFE70698C08FE2
:102E500050B3FFE7069800688068C00778B1FFE7C5
:102E600006980068007B0699896B08700699886B44
:102E7000013088630699C88F0138C88713E0FEF7D0
:102E80007BFE0299401A0399884204D3FFE7039816
:102E9000013018B9FFE7039820B9FFE703208DF848
:102EA000070046E0FFE7D1E72FE0FFE70698C08F75
:102EB00050B3FFE7069800688068C00778B1FFE765
:102EC00006980068C0680699896B08800699886B27
:102ED000023088630699C88F0138C88713E0FEF76F
:102EE0004BFE0299401A0399884204D3FFE70398E6
:102EF000013018B9FFE7039820B9FFE703208DF8E8
:102F0000070016E0FFE7D1E7FFE706980399029A6A
:102F100001F078FD20B1FFE7069920204865FFE722
:102F20000698406D20B1FFE701208DF80700FFE70C
:102F3000FFE70699012081F85100FFE7069900207C
:102F400081F85000FFE79DF807008DF81F00FFE7AC
:102F50009DF81F0008B080BD80B588B0069005912F
:102F6000ADF81220039300208DF80700FFE70698C4
:102F700090F85000012804D1FFE702208DF81F00CF
:102F800022E10699012081F85000FFE7FFE7FEF7F4
:102F9000F3FD0290BDF81200ADF80400069890F819
:102FA0005100012804D0FFE702208DF80700FCE063
:102FB000059820B1FFE7BDF8120020B9FFE7012016
:102FC0008DF80700F1E00699032081F85100069979
:102FD000002048650599069A1163BDF81210069AFB
:102FE0009186BDF81210069AD186069988630699D3
:102FF00088870699C88706994864069908640698E0
:103000008068B0F5004F07D1FFE7069801680868AF
:1030100040F480400860FFE706980068006800F010
:103020004000402807D0FFE706980168086840F094
:1030300040000860FFE70698C068B0F5006F47D110
:10304000FFE70698406828B1FFE7BDF804000128B3
:103050000ED1FFE706980168006B0088C8600699EA
:10306000086B023008630699C88E0138C886FFE7EE
:10307000FFE70698C08E50B3FFE7069800688068A7
:10308000800700280ED5FFE706980168006B0088CE
:10309000C8600699086B023008630699C88E01382B
:1030A000C88613E0FEF768FD0299401A039988422A
:1030B00004D3FFE70398013018B9FFE7039820B95C
:1030C000FFE703208DF807006FE0FFE7D1E746E058
:1030D0000698406828B1FFE7BDF8040001280ED12A
:1030E000FFE706980168006B007808730699086B83
:1030F000013008630699C88E0138C886FFE7FFE7EC
:103100000698C08E50B3FFE7069800688068800775
:1031100000280ED5FFE706980168006B0078087359
:103120000699086B013008630699C88E0138C88675
:1031300013E0FEF721FD0299401A0399884204D357
:10314000FFE70398013018B9FFE7039820B9FFE7BC
:1031500003208DF8070028E0FFE7D1E7FFE7069896
:103160000399029A01F0AAFC20B1FFE706992020FA
:103170004865FFE70698806870B9FFE7FFE7002021
:10318000009006980068C068009006980068806803
:1031900000900098FFE7FFE70698406D20B1FFE739
:1031A00001208DF80700FFE7FFE70699012081F86D
:1031B0005100FFE70699002081F85000FFE79DF8D5
:1031C00007008DF81F00FFE79DF81F0008B080BDC5
:1031D00080B58EB0DDF840C00C900B910A92ADF82E
:1031E00026300120059000208DF81300FFE70C9891
:1031F00090F85000012804D1FFE702208DF8370035
:1032000095E10C99012081F85000FFE7FFE7FEF7F8
:10321000B3FC06900C9890F851008DF81F000C98A4
:1032200040680890BDF82600ADF824009DF81F0006
:10323000012812D0FFE70898B0F5827F09D1FFE797
:103240000C98806828B9FFE79DF81F00042804D077
:10325000FFE702208DF813005AE10B9838B1FFE721
:103260000A9820B1FFE7BDF8260020B9FFE701204A
:103270008DF813004CE10C9890F85100042805D00B
:10328000FFE70C99052081F85100FFE70C99002019
:1032900048650A990C9A9163BDF826100C9AD1875B
:1032A000BDF826100C9A91870B990C9A1163BDF802
:1032B00026100C9AD186BDF826100C9A91860C998E
:1032C00008640C9948640C980068006800F040009D
:1032D000402807D0FFE70C980168086840F04000DC
:1032E0000860FFE70C98C068B0F5006F76D1FFE783
:1032F0000C98406828B1FFE7BDF8240001280ED1E2
:10330000FFE70C980168006B0088C8600C99086B97
:10331000023008630C99C88E0138C886FFE7FFE7C2
:103320000C98C18E0120029039B9FFE70C98C08F2C
:10333000002818BF01200290FFE70298C00700286C
:103340004BD0FFE70C98006880688007002818D5EC
:10335000FFE70C98C08EA0B1FFE70598012810D1B7
:10336000FFE70C980168006B0088C8600C99086B37
:10337000023008630C99C88E0138C8860020059079
:10338000FFE70C9800688068C007A8B1FFE70C98B9
:10339000C08F88B1FFE70C980068C0680C99896BF2
:1033A00008800C99886B023088630C99C88F0138AB
:1033B000C88701200590FFE7FEF7DEFB0699401A5B
:1033C0001099884208D3FFE71098013020B1FFE739
:1033D00003208DF813009BE0A2E778E00C9840688A
:1033E00028B1FFE7BDF8240001280ED1FFE70C98B3
:1033F0000168006B007808730C99086B0130086352
:103400000C99C88E0138C886FFE7FFE70C98C18E7B
:103410000120019039B9FFE70C98C08F002818BF30
:1034200001200190FFE70198C00700284ED0FFE778
:103430000C98006880688007002818D5FFE70C9872
:10344000C08EA0B1FFE70598012810D1FFE70C98C6
:103450000168006B007808730C99086B01300863F1
:103460000C99C88E0138C88600200590FFE70C989B
:1034700000688068C007A8B1FFE70C98C08F88B1CA
:10348000FFE70C980068C0680C99896B08700C996C
:10349000886B013088630C99C88F0138C887012078
:1034A0000590FFE7FEF768FB0699401A10998842DD
:1034B00004D3FFE71098013018B9FFE7109820B93E
:1034C000FFE703208DF8130022E09FE7FFE70C9849
:1034D0001099069A01F0F2FA38B1FFE701208DF851
:1034E00013000C992020486512E00C98806870B990
:1034F000FFE7FFE7002003900C980068C068039086
:103500000C980068806803900398FFE7FFE7FFE7E7
:103510000C99012081F85100FFE70C99002081F8F7
:103520005000FFE79DF813008DF83700FFE79DF886
:1035300037000EB080BD000080B582B001900198C8
:1035400001F0C6FB02B080BD85B003900291FFE799
:10355000039890F83C00012804D1FFE702208DF881
:10356000130039E00399012081F83C00FFE7FFE7F1
:103570000399022081F83D0003980068406801909B
:103580000398006880680090019820F07000019016
:1035900002980168019808430190009820F080008B
:1035A00000900298416800980843009001980399A0
:1035B00009684860009803990968886003990120A8
:1035C00081F83D00FFE70399002081F83C00FFE708
:1035D00000208DF81300FFE79DF8130005B0704739
:1035E00080B582B00090009820B9FFE701208DF8E7
:1035F00007001DE0009890F83D0040B9FFE70099F2
:10360000002081F83C00009800F016F8FFE70099D0
:10361000022081F83D00009951F8040B01F0E4FB11
:103620000099012081F83D0000208DF80700FFE798
:103630009DF8070002B080BD82B00190019800683B
:10364000B0F1804F10D1FFE7FFE741F21C00C4F258
:103650000200016841F001010160006800F0010012
:1036600000900098FFE7FFE702B0704780B586B092
:1036700004900391FFE7049890F83C00012804D1DE
:10368000FFE702208DF81700A7E00499012081F8D8
:103690003C00FFE7FFE70499022081F83D00049811
:1036A000006880680290029820F0770002900298EB
:1036B00020F47F400290029804990968886003987A
:1036C00000680190002872D0FFE7019810286ED0A2
:1036D000FFE7019820286AD0FFE70198302866D0DC
:1036E000FFE70198402855D0FFE70198502837D0D0
:1036F000FFE70198602840D0FFE7019870280BD0C1
:10370000FFE70198B0F5805F05D0FFE70198B0F5BD
:10371000005F16D052E052E004980068039B5A689C
:103720009968DB6801F0F4FB0498006880680290F7
:10373000029840F077000290029804990968886026
:103740003DE004980068039B5A689968DB6801F0C3
:10375000DFFB04980168886840F4804088602EE0B0
:1037600004980068039A5168D26801F08DFD0498AE
:103770000068502101F0E6FB21E004980068039AFC
:103780005168D26801F0A8FD04980068602101F03A
:10379000D9FB14E004980068039A5168D26801F0DC
:1037A00073FD04980068402101F0CCFB07E0049809
:1037B00000680399096801F0C5FB00E0FFE7049980
:1037C000012081F83D00FFE70499002081F83C00CA
:1037D000FFE700208DF81700FFE79DF8170006B0FF
:1037E00080BD000080B586B0059000200490039055
:1037F0000290019005980068B0F1804F1BD1FFE75F
:10380000FFE741F21800C4F20200016841F0040130
:103810000160006800F0040000900098FFE70220BB
:1038200001900290049040F60000C4F2010001A94A
:10383000FDF7E2FFFFE706B080BD000080B586B06F
:10384000049003910292FFE7049890F83C0001284D
:1038500004D1FFE702208DF817008DE004990120C4
:1038600081F83C00FFE7FFE70499022081F83D0062
:10387000029801900C2800F270800199DFE801F0B5
:10388000076D6D6D206D6D6D3A6D6D6D5300049813
:103890000068039901F06CFB04980168886940F0A6
:1038A0000800886104980168886920F00400886134
:1038B00003980269049801688869104388614DE0A3
:1038C00004980068039901F0BBFB049801688869BB
:1038D00040F40060886104980168886920F4806081
:1038E00088610398026904980168886940EA0220A7
:1038F000886133E004980068039901F00DFC049896
:103900000168C86940F00800C86104980168C86986
:1039100020F00400C8610398026904980168C8692E
:103920001043C8611AE004980068039901F060FC34
:1039300004980168C86940F40060C861049801688F
:10394000C86920F48060C86103980269049801681E
:10395000C86940EA0220C86100E0FFE7049901203D
:1039600081F83D00FFE70499002081F83C00FFE763
:1039700000208DF81700FFE79DF8170006B080BD06
:1039800080B582B00090009820B9FFE701208DF843
:1039900007001DE0009890F83D0040B9FFE700994E
:1039A000002081F83C00009800F016F8FFE700992D
:1039B000022081F83D00009951F8040B01F014FA3F
:1039C0000099012081F83D0000208DF80700FFE7F5
:1039D0009DF8070002B080BD81B0009001B0704733
:1039E00080B584B003900291039800680299012287
:1039F00001F072FA0398006842F60041C4F2010136
:103A0000884207D1FFE703980168486C40F4004002
:103A10004864FFE703980068806800F007000190A1
:103A20000198062807D0FFE703980168086840F06E
:103A300001000860FFE7002004B080BDFFE7FEE75B
:103A400082B0009000980068406900F48061012015
:103A5000B0EB912F1ED1FFE7009801686FF48060F2
:103A60004861009900200863009A202182F83D10E7
:103A7000009981F83E000099086C40F00400086449
:103A8000FFE70099002081F83C00FFE701208DF856
:103A9000070003E000208DF80700FFE79DF807000E
:103AA00002B0704780B588B00690ADF81610049249
:103AB00003930698C06A02900298082809D0FFE78D
:103AC0000298012805D0FFE7029810F5803F07D142
:103AD000FFE706980168086840F4807008600DE010
:103AE0000698006B122807D1FFE70698016808685E
:103AF00040F48070086000E0FFE7FFE70698049B51
:103B000003996A4611604FF00111002200F094F809
:103B100020B1FFE701208DF81F003CE00698006906
:103B2000B0F5804F08D1FFE7BDF8160000F0FE00A9
:103B30000699096808611CE0BDF8160000F44070A1
:103B4000C009F0300699096808610698049A039B39
:103B50000821C0F2010100F0CFF820B1FFE70120F9
:103B60008DF81F0017E09DF8160006990968086196
:103B7000FFE70698049A039B0221C0F2010100F0BE
:103B8000BBF820B1FFE701208DF81F0003E0002003
:103B90008DF81F00FFE79DF81F0008B080BD0000F2
:103BA00080B584B0029001910092FFE7029800680E
:103BB000406900F004010020B0EB910F33D1FFE722
:103BC0000298FFF73DFF20B1FFE701208DF80F00BD
:103BD0002DE00198013028B3FFE7FDF7CDFF0099F4
:103BE000401A0199884203D8FFE70198C8B9FFE756
:103BF000029900200863029A202182F83D10029960
:103C000081F83E000299086C40F020000864FFE74C
:103C10000299002081F83C00FFE701208DF80F0099
:103C200005E0FFE7C2E700208DF80F00FFE79DF8F1
:103C30000F0004B080BD000080B586B0DDF820C064
:103C4000049003918DF80B200193FFE79DF80E007F
:103C500001280CD1FFE7049800684069BDF80C10FA
:103C60000840401AB0FA80F0400900900BE0049838
:103C700000688069BDF80C100840401AB0FA80F066
:103C800040090090FFE700989DF80B1088422AD168
:103C9000FFE70198013028B3FFE7FDF76DFF0899B2
:103CA000401A0199884203D8FFE70198C8B9FFE795
:103CB000049900200863049A202182F83D10049999
:103CC00081F83E000499086C40F020000864FFE78A
:103CD0000499002081F83C00FFE701208DF81700CF
:103CE00005E0FFE7B2E700208DF81700FFE79DF839
:103CF000170006B080BD000080B586B00490039127
:103D000002920193FFE79DF80E0001280CD1FFE716
:103D1000049800684069BDF80C100840401AB0FAD9
:103D200080F0400900900BE0049800688069BDF8BD
:103D30000C100840401AB0FA80F040090090FFE7EC
:103D40000098002858D1FFE704980068406900F403
:103D500080610120B0EB912F24D1FFE70498016826
:103D6000086840F400700860049801686FF480608F
:103D70004861049900200863049A202182F83D10CC
:103D8000049981F83E000499086C40F0040008642E
:103D9000FFE70499002081F83C00FFE701208DF83F
:103DA00017002DE00298013028B3FFE7FDF7E4FE8D
:103DB0000199401A0299884203D8FFE70298C8B9CE
:103DC000FFE7049900200863049A202182F83D103F
:103DD000049981F83E000499086C40F020000864C2
:103DE000FFE70499002081F83C00FFE701208DF8EF
:103DF000170005E0FFE786E700208DF81700FFE7D2
:103E00009DF8170006B080BD80B584B00290019186
:103E10000092FFE7029800684069C1B20020B0EB51
:103E2000D11F33D1FFE70298FFF70AFE20B1FFE769
:103E300001208DF80F002DE00198013028B3FFE735
:103E4000FDF79AFE0099401A0199884203D8FFE7CE
:103E50000198C8B9FFE7029900200863029A20215F
:103E600082F83D10029981F83E000299086C40F0FA
:103E700020000864FFE70299002081F83C00FFE77A
:103E800001208DF80F0005E0FFE7C3E700208DF863
:103E90000F00FFE79DF80F0004B080BD80B590B023
:103EA00040F60000C4F2010000900E900D900C90BE
:103EB0000B904021C0F280010A911021C0F2200134
:103EC000099108900790069005900420C0F2080020
:103ED00004900120C0F20040039000200290FFE710
:103EE0000298032868DCFFE700200190FFE70198B3
:103EF00003280FDCFFE7019A0BA850F8220009A95C
:103F000031F812100122FDF71FFEFFE70198013082
:103F10000190ECE7029A0BA850F8220009A931F8A9
:103F200012100022FDF710FE0598BDF80C10FDF7E9
:103F3000F3FD48B9FFE7029940F20800C2F2000021
:103F4000405C8DF83F003BE00698BDF80E10FDF791
:103F5000E3FD50B9FFE7029940F20800C2F2000009
:103F6000084400798DF83F002AE00798BDF810104A
:103F7000FDF7D2FD50B9FFE7029940F20800C2F206
:103F800000000844007A8DF83F0019E00898BDF859
:103F90001210FDF7C1FD50B9FFE7029940F2080089
:103FA000C2F200000844007B8DF83F0008E0FFE704
:103FB00002980130029093E700208DF83F00FFE760
:103FC0009DF83F0010B080BD80B582B040F218006F
:103FD000C2F200000821017000788DF807006946E0
:103FE0006420086040F2C000C2F200004E210DF1D2
:103FF00007020123FDF70CFF02B080BD80B582B03F
:104000000190FFE70198007838B1FFE70198411C63
:104010000191007800F004F8F4E702B080BD0000E0
:1040200080B584B08DF80F009DF80F0000F0F0000F
:104030008DF80E009DF80F0000018DF80D009DF821
:104040000E0040F00D008DF809009DF80E0040F0C4
:1040500009008DF80A009DF80D0040F00D008DF864
:104060000B009DF80D0040F009008DF80C0069462A
:104070006420086040F2C000C2F200004E210DF141
:1040800009020423FDF7C4FE04B080BD80B584B0EE
:104090008DF80F009DF80F0000F0F0008DF80E0075
:1040A0009DF80F0000018DF80D009DF80E0040F006
:1040B0000C008DF809009DF80E0040F008008DF806
:1040C0000A009DF80D0040F00C008DF80B009DF8E3
:1040D0000D0040F008008DF80C006946642008606F
:1040E00040F2C000C2F200004E210DF1090204238B
:1040F000FDF78EFE04B080BD80B582B040F218009E
:10410000C2F200000021017000788DF807006946B6
:104110006420086040F2C000C2F200004E210DF1A0
:1041200007020123FDF774FE02B080BD80B50120B7
:10413000FFF7ACFF80BD000080B586B0059004910C
:1041400000228DF80D2005980D2100F087FA0499C2
:10415000932008700499202048700598049A6946B5
:1041600002AB4B600A600C21022300F069F98DF864
:104170000F009DF80F0038BBFFE700208DF80E0000
:10418000FFE79DF80E00032810DCFFE704989DF878
:104190000E10415C9DF80D0048408DF80D00FFE7C2
:1041A0009DF80E0001308DF80E00EAE79DF80D0035
:1041B00004999DF80E20895C884204D0FFE7012015
:1041C0008DF80F00FFE7FFE79DF80F0006B080BDF8
:1041D00080B584B002900191029826210DF102026F
:1041E00000F0DEF820B1FFE701208DF80F000DE0B0
:1041F00002980199FFF7A0FF20B1FFE701208DF899
:104200000F0003E000208DF80F00FFE79DF80F007E
:1042100004B080BD80B582B001908DF803108DF898
:10422000022001989DF8031000F08AF88DF8010033
:1042300001989DF803109DF801209DF802309A43E3
:1042400000F00CFA02B080BD85B00390029101929B
:1042500000208DF80300FFE79DF80300032814DC1D
:10426000FFE702989DF80320805C0199895C8842F1
:1042700004D0FFE701208DF813000AE0FFE79DF866
:10428000030001308DF80300E6E700208DF81300ED
:10429000FFE79DF8130005B07047000080B586B0B9
:1042A00084460998DDF820E0CDF814C0049103920B
:1042B000ADF80A30ADF80800049805990860039835
:1042C00005994860BDF80A00059908810898059984
:1042D000C860BDF8080005990882059948680989F1
:1042E00001220192FDF730FC019A0599C868098AFC
:1042F000FDF72AFC059800F07FF805982A218D2209
:1043000000F0ACF905982B213E2200F0A7F90598A2
:104310002D211E2200F0A2F905982C21002200F088
:104320009DF905981521402200F098F90598112172
:104330003D2200F093F90598FDF70EF906B080BD17
:1043400080B584B003908DF80B10039948680989F3
:104350000022FDF7F9FB9DF80B10802040EA410098
:104360008DF80900039800680DF1090101220192FE
:104370004FF0FF330093FEF7EFFD009B019A039887
:1043800000680DF10A01FEF7D5FC019A039948680F
:104390000989FDF7D9FB9DF80A0004B080BD000033
:1043A00080B588B007908DF81B10059207980D21F5
:1043B000072200F053F99DF81B0005990870079833
:1043C000059A694603AB4B600A600C21012300F09B
:1043D00037F88DF813009DF8130020B9FFE7039814
:1043E000102804D0FFE701208DF81300FFE79DF8A7
:1043F000130008B080BD000080B582B00190019824
:1044000001210F2200F02AF902B080BD80B582B0F0
:1044100001908DF803108DF8022001989DF803108B
:10442000FFF78EFF8DF8010001989DF803109DF8AD
:1044300001209DF802301A4300F010F902B080BD4F
:1044400080B58AB0DDF834C0DDF830C009908DF851
:10445000231007928DF81B3001208DF81A000020E0
:104460008DF819008DF818009DF82300014603917E
:104470000C280BD0FFE703980E280ED1FFE712207F
:104480008DF8190010208DF8180007E077208DF8BE
:10449000190030208DF8180000E0FFE709989DF81A
:1044A000191041F08002022100F0D8F80998042187
:1044B00080220192FFF7AEFE019A09980A21FFF7C8
:1044C000A5FF099801210022029200F0C7F8029886
:1044D0000490FFE704989DF81B1088420CD2FFE778
:1044E00009980799049A8A5C092100F0B7F8FFE758
:1044F000049801300490EDE709989DF823200121EC
:1045000000F0ACF89DF823000C2806D1FFE70998CD
:104510000D218022FFF77AFFFFE74FF4FA60049045
:10452000FFE709980421FFF70BFF8DF816000498A8
:1045300001380490FFE704990020009089B1FFE75B
:104540009DF816100020C907009051B9FFE79DF8AB
:1045500016009DF818100840B0FA80F0400900904D
:10456000FFE70098C0070028DBD1FFE709980D217D
:104570008022FFF74FFE049800286BD0FFE70998D0
:104580000621FFF7DDFE10F01B0F5ED1FFE70020D4
:104590008DF81A009DF816009DF819100840C00704
:1045A00020B1FFE701208DF81A00FFE79DF82300F6
:1045B0000C2849D1FFE709980A21FFF7C1FE8DF8C1
:1045C000160009980C21FFF7BBFE00F007008DF8DC
:1045D00017009DF8170050B1FFE79DF816109DF8E1
:1045E000170000EBC10008380D99086005E09DF840
:1045F0001600C0000D990860FFE79DF8160020B96D
:10460000FFE701208DF81600FFE79DF8160011283E
:1046100004DBFFE710208DF81600FFE70020049070
:10462000FFE704989DF8161088420CD2FFE709981E
:104630000921FFF785FE0C99049A8854FFE7049836
:1046400001300490EDE7FFE703E001208DF81A0048
:10465000FFE7FFE79DF81A000AB080BD80B582B081
:1046600001908DF803108DF802200199486809899E
:104670000022FDF769FA9DF803107E2000EA410050
:104680008DF800009DF802008DF801000198006887
:10469000694602224FF0FF33FEF75EFC019948683D
:1046A00009890122FDF750FA02B080BD80B58EB0B5
:1046B00000200D900C900B900A90FFE741F218003B
:1046C000C4F20200016841F004010160006800F0DA
:1046D000040009900998FFE7FFE741F21800C4F2CF
:1046E0000200016841F008010160006800F0080064
:1046F00008900898FFE740F60000C4F2010002901D
:1047000041F6F031019100220592FDF71DFA059A5C
:1047100040F60040C4F2010006904FF4805103912E
:10472000FDF712FA0298059940F20D420A920B9198
:10473000012104910C910AA90791FDF75DF8DDF8BC
:1047400004C00298049B059A0799CDF828C00B93E2
:104750000C9202220D92FDF74FF8DDF80CC0049B7D
:10476000059A06980799CDF828C00B930C9203225E
:104770000D92FDF741F80EB080BD000080B582B00B
:1047800040F2C000C2F20000019045F20041C4F2C4
:104790000001016048F2A061C0F201014160002106
:1047A0008160C1604FF48042026141618161C161F9
:1047B0000162FDF7E7F918B1FFE7FCF78FFFFFE7AC
:1047C00002B080BD80B582B040F21410C2F2000089
:1047D000019043F60001C4F2000101604FF48271C0
:1047E000416000218160C160016141614FF400724C
:1047F00082610822C2610162416281620A21C16252
:10480000FEF7EEF918B1FFE7FCF768FFFFE702B02B
:1048100080BD000080B58EB0002100910D910C91FB
:104820000B910A91099108910791069105910491C4
:1048300003910291019140F26C10C2F200004FF01E
:104840008042026007224260816044F61F62C260BB
:1048500001618161FEF7C4FE18B1FFE7FCF73EFF7E
:10486000FFE74FF480500A9040F26C10C2F2000053
:104870000AA9FEF7FBFE18B1FFE7FCF72FFFFFE7E1
:1048800040F26C10C2F20000FFF77AF818B1FFE7AF
:10489000FCF724FFFFE700200890099040F26C101D
:1048A000C2F2000008A9FEF74FFE18B1FFE7FCF7BF
:1048B00015FFFFE7602001904FF4FA60029000209E
:1048C0000390059040F26C10C2F2000001A904228E
:1048D000FEF7B4FF18B1FFE7FCF700FFFFE740F277
:1048E0006C10C2F20000FEF77DFF0EB080BD00002C
:1048F000FFE7FEE780B584B00290019100200090B0
:10490000FFE7009840F2A501C2F200010978884251
:1049100017DAFFE701980299009A02EB820340F24E
:10492000A602C2F200021A44FFF78EFC20B9FFE78C
:1049300001208DF80F0008E0FFE70098013000909B
:10494000DFE700208DF80F00FFE79DF80F0004B0AF
:1049500080BD0000FFE7FEE788B007900691059252
:10496000079800F0070004900498C0F1070005289C
:1049700003D3FFE70420019004E00498C0F107008E
:104980000190FFE70198039004980430062803D8AB
:10499000FFE70020009003E0049803380090FFE751
:1049A0000098029006980399012202FA01F1013958
:1049B0000840029B984005999A40013A11400843EB
:1049C00008B070477047000082B00190019840F233
:1049D0000401C2F200010968C90844F6D352C1F2C9
:1049E0006202A1FB0221890948430090FFE700BF52
:1049F000FFE70098411E00910028F8D1FFE702B0C0
:104A00007047000080B586B004900391029204982C
:104A10004068B0F5827F13D1FFE704988068B0F555
:104A2000004F06D0FFE704988068B0F5806F07D18B
:104A3000FFE704980168086820F040000860FFE77D
:104A400004984068B0F5827F1BD1FFE70498806826
:104A5000B0F5806F15D1FFE70498039B02996A4671
:104A600011600121002200F04BF848B1FFE70499E2
:104A7000486D40F02000486503208DF8170019E0CC
:104A800014E00498039B02996A4611608021002279
:104A900000F036F848B1FFE70499486D40F0200077
:104AA000486503208DF8170004E0FFE700208DF82B
:104AB0001700FFE79DF8170006B080BD80B586B0EF
:104AC0000490039102920498039B02996A46116034
:104AD0008021002200F014F848B1FFE70499486DE6
:104AE00040F02000486503208DF8170003E0002007
:104AF0008DF81700FFE79DF8170006B080BD000095
:104B000080B586B0DDF820C0049003918DF80B20AD
:104B10000193FFE704980068806803990840401AF1
:104B2000B0FA80F040099DF80B10884255D0FFE79D
:104B30000198013000284FD0FFE7FDF71DF80899D4
:104B4000401A0199884204D2FFE70198002842D117
:104B5000FFE704980168486820F0E0004860049886
:104B60004068B0F5827F13D1FFE704988068B0F504
:104B7000004F06D0FFE704988068B0F5806F07D13A
:104B8000FFE704980168086820F040000860FFE72C
:104B90000498806AB0F5005F0FD1FFE7FFE7049843
:104BA0000168086820F400500860049801680868EB
:104BB00040F400500860FFE7FFE70499012081F806
:104BC0005100FFE70499002081F85000FFE703201F
:104BD0008DF8170005E0FFE79CE700208DF817002F
:104BE000FFE79DF8170006B080BD00007047000089
:104BF00080B540F26C10C2F200000421FEF7F0FE16
:104C0000002000F001F880BD80B584B08DF80F0061
:104C10009DF80F0002F04CF80021C4F2343101F08D
:104C200065FF0021C4F2FA4102F056F80021C4F2F7
:104C3000164101F0F9FE02F01BF802900298C0083C
:104C40004A2804D8FFE74FF416700290FFE7029855
:104C500040F62921884204D3FFE740F6282002903D
:104C6000FFE7029840F26C11C2F200010968886304
:104C70009DF80F005A2811DBFFE740F60000C4F250
:104C8000010001904FF400610122FCF75DFF0198E3
:104C90004FF480510022FCF757FF16E09DF80F00FB
:104CA000092811DCFFE740F60000C4F20100009083
:104CB0004FF400610022FCF747FF00984FF4805149
:104CC0000122FCF741FFFFE7FFE704B080BD0000D1
:104CD00080B582B0009000980138B0F1807F03D396
:104CE000FFE70120019019E0009801384EF214010D
:104CF000CEF2000108604FF0FF300F2100F020FBE2
:104D00004EF21801CEF20001002008604EF21002AF
:104D1000CEF20002072111600190FFE7019802B076
:104D200080BD000080B5FDF7B9F980BD80B590B0B9
:104D300006A800902821FBF7C9FA009800210591E8
:104D400004910391029101910222069201220A929A
:104D500010220B920D91FDF705FC18B1FFE7FCF74F
:104D6000BDFCFFE70F200190002102910391049107
:104D7000059101A8FDF740FA18B1FFE7FCF7AEFC7A
:104D8000FFE710B080BD000041F20002C4F2020251
:104D9000106840F00100106041F20401C4F2020109
:104DA00008680023CFF6FF031840086010684FF62C
:104DB000FF73CFF6F66318401060106820F480206F
:104DC0001060086820F4FE00086041F20801C4F297
:104DD00002014FF41F0008604EF60851CEF20001A8
:104DE0004FF000600860704783B002900191029814
:104DF00000680090029842F60041C4F20101884226
:104E000015D0FFE70298B0F1804F10D0FFE702986D
:104E100040F20041C4F20001884208D0FFE7029846
:104E200040F60001C4F2000188420AD1FFE7009871
:104E300020F07000009001984168009808430090AD
:104E4000FFE7029842F60041C4F20101884215D002
:104E5000FFE70298B0F1804F10D0FFE7029840F2D0
:104E60000041C4F20001884208D0FFE7029840F6F2
:104E70000001C4F2000188420AD1FFE7009820F443
:104E8000407000900198C168009808430090FFE7C7
:104E9000009820F08000019949690843009000982B
:104EA00002990860019880680299C86201980068B8
:104EB00002998862029842F60041C4F201018842D8
:104EC00005D1FFE70198006902990863FFE702999D
:104ED0000120486103B0704784B0039002910192B1
:104EE000029800F01F01012088400090009A039969
:104EF000086A904308620198029901F01F0100FAC4
:104F000001F20399086A1043086204B07047000078
:104F100085B00490039102920193049880680090F8
:104F2000009820F47F40009003980299019A41EA8A
:104F3000022101430098084300900098049988607A
:104F400005B0704783B0029001910298806800908C
:104F5000009820F07000009001980099084340F0FC
:104F60000700009000980299886003B07047000025
:104F700085B0049003910499086A20F0010008624A
:104F80000498006A01900498406800900498806931
:104F90000290029820F070000290029820F0030026
:104FA000029003980168029808430290019820F04B
:104FB00002000190039881680198084301900498C9
:104FC00042F60041C4F2010188420ED1FFE7019888
:104FD00020F0080001900398C168019808430190EF
:104FE000019820F004000190FFE7049842F6004188
:104FF000C4F20101884213D1FFE7009820F48070C9
:105000000090009820F40070009003984169009887
:105010000843009003988169009808430090FFE7D7
:105020000098049948600298049988610398406840
:105030000499486301980499086205B0704700001C
:1050400085B0049003910499086A20F0100008626A
:105050000498006A01900498406800900498806960
:105060000290029820F4E0400290029820F44070F0
:10507000029003980168029840EA0120029001988A
:1050800020F02000019003988168019840EA011007
:105090000190049842F60041C4F2010188420FD108
:1050A000FFE7019820F0800001900398C168019803
:1050B00040EA01100190019820F040000190FFE7C4
:1050C000049842F60041C4F20101884215D1FFE77D
:1050D000009820F480600090009820F40060009018
:1050E00003984169009840EA810000900398816923
:1050F000009840EA81000090FFE70098049948601A
:10510000029804998861039840680499886301981B
:105110000499086205B0704785B004900391049922
:10512000086A20F4807008620498006A019004986C
:10513000406800900498C0690290029820F07000C6
:105140000290029820F003000290039801680298F0
:1051500008430290019820F4007001900398816840
:10516000019840EA01200190049842F60041C4F2FF
:10517000010188420FD1FFE7019820F400600190FF
:105180000398C168019840EA01200190019820F439
:1051900080600190FFE7049842F60041C4F20101EB
:1051A000884215D1FFE7009820F4805000900098C5
:1051B00020F40050009003984169009840EA0110E3
:1051C000009003988169009840EA01100090FFE781
:1051D00000980499486002980499C861039840684F
:1051E0000499C86301980499086205B070470000EB
:1051F00085B0049003910499086A20F480500862F5
:105200000498006A01900498406800900498C0696E
:105210000290029820F4E0400290029820F440703E
:10522000029003980168029840EA012002900198D8
:1052300020F40050019003988168019840EA013001
:105240000190049842F60041C4F2010188420BD15A
:10525000FFE7009820F4804000900398416900988F
:1052600040EA81100090FFE7009804994860029896
:105270000499C861039840680499086401980499E6
:10528000086205B07047000085B004900391029257
:105290000498006A00900499086A20F001000862EE
:1052A000049880690190019820F0F0000190029923
:1052B000019840EA01100190009820F00A00009047
:1052C0000399009808430090019804998861009818
:1052D0000499086205B0704785B00490039102926A
:1052E0000499086A20F0100008620498806901900F
:1052F0000498006A0090019820F47040019002998F
:10530000019840EA01300190009820F0A000009040
:105310000399009840EA011000900198049988616F
:1053200000980499086205B070470000FFE7FEE7A7
:105330004EF60C50CEF200000068C0F30220704719
:1053400082B08DF8070000919DF9070000280AD46B
:10535000FFE7009800019DF907104EF20042CEF2DF
:10536000000288540BE0009800019DF8071001F03E
:105370000F014EF61452CEF200028854FFE702B03D
:105380007047000083B00290029800F00700009080
:105390004EF60C51CEF200010868019001984FF6CC
:1053A000FF02104001900198009A40EA022000227A
:1053B000C0F2FA52104301900198086003B07047A0
:1053C00080B582B009200190FFE7019800281BD426
:1053D000FFE7C020FEF75AFE019A40F2BD10C2F26C
:1053E0000000009047F2FE21C0F60001FAF758FFD6
:1053F0000098FEF703FE4FF47A70FCF7DBF9FFE745
:10540000019801380190E0E702B080BD80B582B01C
:105410000120FEF73BFE32200190FCF7CBF906207D
:10542000FEF734FE0198FCF7C5F90C20FEF72EFEBE
:105430000198FCF7BFF90220FEF728FE0198FCF75F
:10544000B9F98020FEF722FE02B080BD80B59AB087
:1054500000201990FCF730FEFFF768FCFFF726F9F3
:10546000FFF78CF9FFF7AEF9FFF7D4F9FFF7CEFF9E
:10547000FFF7BEFB3220FCF79DF9FEF757FE6946A9
:105480004FF40070486040F60000C4F2010008606C
:1054900040F29000C2F2000040F21411C2F200018A
:1054A00040F60042C4F201024FF48053FEF7F6FECC
:1054B0008020FEF7EBFD47F2D920C0F60000FEF792
:1054C0009DFD6420FCF776F906201890FFE71898F8
:1054D00000281BD4FFE7C020FEF7D8FD189A40F241
:1054E000BD10C2F20000109047F2A921C0F60001E1
:1054F000FAF7D6FE1098FEF781FD4FF47A70FCF7AC
:1055000059F9FFE7189801381890E0E7FEF70EFE0A
:10551000FCF732FB40F2B811C2F200010860FFE76D
:10552000FEF7BCFC8DF85F0040F2B710C2F200003D
:105530000078002840F00281FFE740F28D00C2F2BF
:1055400000000078002840F0F980FFE7C020FEF757
:105550009DFD00201690FFE7169840F2B611C2F2AA
:105560000001097888420BDAFFE747F2B300C0F682
:105570000000FEF743FDFFE7169801301690EBE7B9
:105580009DF85F00002800F0D880FFE79620FCF728
:1055900011F9FCF7F1FA40F2B811C2F2000108600B
:1055A0009DF85F0030281FDBFFE79DF85F0039287A
:1055B0001ADCFFE740F2B610C2F2000000780528BE
:1055C00012DCFFE79DF85F0040F2B613C2F2000361
:1055D0001A78511C197040F2AC11C2F200018854C3
:1055E0003220FBF7D3FFFFE79DF85F0023282CD183
:1055F000FFE740F2B610C2F20000007828BBFFE7D8
:10560000FEF794FD1E20FCF7D5F88320FEF73EFD43
:1056100047F2E800C0F60000FEF7F0FCC220FEF7FB
:1056200035FD47F2A400C0F60000FEF7E7FC40F6A7
:105630009800FCF7BFF8FEF779FDFCF79DFA40F201
:10564000B811C2F20001086076E09DF85F002328DF
:1056500054D1FFE740F2B610C2F20000027840F2E7
:10566000AC10C2F200000021815440F21901C2F2D4
:105670000001FAF753FEF0B9FFE7FEF757FD80206F
:10568000FEF704FD47F27800C0F60000FEF7B6FC16
:105690009620FFF7B9FA3220FBF778FFFBF790FF6F
:1056A0000020FFF7B1FAFCF767FA40F2B811C2F236
:1056B0000001086012E0FEF739FD8020FEF7E6FCED
:1056C00047F2BB20C0F60000FEF798FC0320322210
:1056D0001146FCF70BF8FFF773FEFFE740F2B61137
:1056E000C2F2000100200870FEF720FDFCF744FA2A
:1056F00040F2B811C2F2000108601CE09DF85F00A2
:105700002A2817D1FFE740F2B611C2F200010020AB
:10571000087040F2AC11C2F20001088148600860D4
:10572000FEF704FDFCF728FA40F2B811C2F20001BE
:105730000860FFE7FFE7FFE7FFE7FFE740F28D00C4
:10574000C2F20000007806280BD1FFE740F2880083
:10575000C2F20000007818B9FFE7FEF7CDFCFFE7C2
:10576000FFE740F28D00C2F20000007806282ED03C
:10577000FFE7FCF701FA40F2B811C2F20001096834
:10578000401A43F69921884221D3FFE740F28D0168
:10579000C2F200010620087040F2B611C2F2000108
:1057A0000020087040F2AC11C2F20001088148608C
:1057B0000860FEF7BBFC8020FEF768FC47F2C700DC
:1057C000C0F60000FEF71AFCFEF796FCFFE740F279
:1057D0008D00C2F20000007801460F91062800F209
:1057E00011850F99DFE811F00700AC00CE017202BD
:1057F000FE02E0036B04FEF799FC8020FEF746FCF6
:1058000047F2C700C0F60000FEF7F8FB9DF85F0006
:10581000412829D1FFE740F28D01C2F200010120A9
:105820000870FEF783FC3220FBF7C4FF8020FEF7F0
:105830002DFC47F24C20C0F60000FEF7DFFB4620AF
:10584000FBF7B8FFC020FEF721FC47F2E810C0F6D6
:105850000000FEF7D3FBFCF78FF940F2B811C2F25B
:105860000001086000F0CEBC40F29000C2F20000DF
:1058700040F28901C2F20001FEF7AAFC014640F2A3
:10588000BC10C2F2000001700078002856D1FFE77A
:1058900040F20000C2F20000016840F28900C2F24A
:1058A00000000068884208D1FFE740F2A400C2F27D
:1058B0000000007801280CD0FFE740F28900C2F216
:1058C000000040F29001C2F20001FFF713F840B16E
:1058D000FFE747F29720C0F60000FBF789FD00F0D4
:1058E00091BCFEF723FC80200E90FEF7CFFB47F221
:1058F0001410C0F60000FEF781FB40F28D01C2F2E9
:10590000000100200870032032221146FBF7EEFE52
:10591000FFF756FDFEF70AFC0E98FEF7B7FB47F2BD
:10592000C800C0F60000FEF769FBFCF725F940F25D
:10593000B811C2F20001086000F064BC00F062BC63
:105940009DF85F00422829D1FFE7FCF715F940F2E6
:10595000B811C2F20001086040F28D01C2F20001EC
:1059600002200870FEF7E2FB3C20FBF723FF8020BB
:10597000FEF78CFB47F2B500C0F60000FEF73EFBD9
:105980004620FBF717FFC020FEF780FB47F24310CD
:10599000C0F60000FEF732FB00F034BC9DF85F005B
:1059A000432874D1FFE740F2A400C2F2000000785F
:1059B000002847D1FFE7FEF7B9FB80200C90FEF7E7
:1059C00065FB47F2CB10C0F60000FEF717FBC020C6
:1059D0000D90FEF75BFB47F20210C0F60000FEF7E9
:1059E0000DFB032032221146FBF780FE40F6C41067
:1059F000FBF7E0FE40F28D01C2F2000101200870C9
:105A0000FEF794FB1E20FBF7D5FE0C98FEF73EFB3D
:105A100047F25D20C0F60000FEF7F0FA4620FBF7E3
:105A2000C9FE0D98FEF732FB47F2E810C0F6000001
:105A3000FEF7E4FAFCF7A0F840F2B811C2F2000158
:105A40000860DFE3FEF772FB40F28D01C2F2000155
:105A5000032008708020FEF719FB47F23310C0F6D0
:105A60000000FEF7CBFA4620FBF7A4FEC020FEF7AD
:105A70000DFB47F25310C0F60000FEF7BFFAFCF72B
:105A80007BF840F2B811C2F200010860BAE39DF859
:105A90005F0044285DD1FFE740F2A400C2F200009D
:105AA0000078012825D1FFE7FCF766F840F2B8112D
:105AB000C2F200010860FEF739FB40F28D01C2F22C
:105AC0000001052008708020FEF7E0FA47F2192057
:105AD000C0F60000FEF792FA4620FBF76BFEC020EE
